:0300230002197E41
:10197E00C0E0C0F0C083C082C0D075D000C000C02F
:10198E0001C002C003C004C005C006C0071217F68E
:10199E00D007D006D005D004D003D002D001D0009D
:0B19AE00D0D0D082D083D0F0D0E03247
:03001B00020009D7
:0100090032C4
:03000B00021901D6
:10190100C0E0C0F0C083C082C0D075D000C000C0AC
:1019110001C002C003C004C005C006C00712000612
:1019210012137E121691D007D006D005D004D00331
:10193100D002D001D000D0D0D082D083D0F0D0E07E
:011941003273
:0300130002000ADE
:01000A0032C3
:0300030002000EEA
:01000E0032BF
:101713004F4C45445F544553545F4F4B005F322E4B
:101723003467687A5F74785F6F6B007561727420D9
:101733006F6B000D0A00554154525F5258006F7091
:10174300656E00636C6F736500322E3447487A5FB1
:1017530052583A006B6579305F73006B6579305F7F
:101763006C006B6579315F73006B6579315F6C0079
:101773006B6579325F73006B6579325F6C006B6503
:0C17830079335F73006B6579335F6C0095
:100F570053A23F7F017E00121D80121C47121CF511
:100F67001211C0121AD37BFF7A17791378B2741053
:100F7700F2E4FD7F1012185678B07406F20874FF79
:100F8700F208740AF208740EF27B407D02E4FF1245
:100F9700160A7FE87E03121C9C121AD312178FEFD2
:100FA70070FA1218B178537C007DFE7BFF7A1779AF
:100FB70020120F3A7BFE7A007953121CE0EF147867
:100FC70053F27BFE7A007953121A9E7BFF7A1779C8
:100FD7002E121D087845E2FF75F016A42417F8E2D3
:100FE7006401600302109F7845E2FE75F016A424A1
:100FF70018F8E2FDEE75F016A424032DF8E4F2EFDD
:1010070075F016A42403F9E4FA7BFE121D087BFF92
:101017007A177936121D08121AD37BFF7A17793996
:1010270078B27410F27D04E4FF1218567845E27521
:10103700F016A42403F9E4FA7BFE78B27410F27D6B
:1010470006E4FF1218567845E275F016A42403F952
:10105700E4A801FC7DFE7BFF7A177941120E51EF60
:101067003395E04F7004C2A380227845E275F016ED
:10107700A42403F9E4A801FC7DFE7BFF7A177946D7
:10108700120E51EF3395E04F7002D2A37845E27507
:10109700F016A42417F8E4F220815C7BFE7A00792D
:1010A70053121A2FEF7050780074FEF2087400F292
:1010B700087453F2E22401F218E23400F218E2FB5A
:1010C70008E2FA08E2F97853E2FD121CCB121AD3B0
:1010D7007BFF7A17794C78B27410F2E4FDFF12188F
:1010E700567800E2FB08E2FA08E2F978B27410F2E7
:1010F7007D02E4FF1218567884E2640170087BFFD2
:101107007A177957800D7884E2640270157BFF7A2D
:1011170017795E78B27410F2E4FDFF121856E4787E
:1011270084F2788EE2640170087BFF7A1779658014
:101137000D788EE2640270157BFF7A17796C78B2AE
:101147007410F2E4FDFF121856E4788EF27898E2F4
:10115700640170087BFF7A177973800D7898E264D1
:101167000270157BFF7A17797A78B27410F2E4FD72
:10117700FF121856E47898F278A2E2640170187B9F
:10118700FF7A17798178B27410F2E4FDFF121856CE
:10119700E478A2F2020FDB78A2E264026003020F96
:1011A700DB7BFF7A17798878B27410F2E4FDFF12BF
:0911B7001856E478A2F2020FDBE5
:101C9C00EF1FAC0670011E4C600D0000007D0B7C2C
:071CAC00BEDCFEDDFC80E957
:011CB300220E
:0B1D8000EF1FAC0670011E4C70F62235
:0B1D74000000007F027E99DEFEDFFC15
:011D7F002241
:101C4700759850438E40538EFE53890F758BE07500
:0D1C57008DFEC2ABD28ED29CD2AFD2AC2299
:101CF500438E805389F0758ACD758CD4C28DD28C74
:031D0500D2A9223E
:081D9E008F993099FDC29922D2
:101D0800120C04FF600C121D9E740129F9E43AFAC2
:031D180080EE2238
:101CCB00ED6011120C04FF121D9E740129F9E43A08
:051CDB00FA1D80EC225F
:1019B9007846E260357848E204F2E2C3940574801F
:1019C90094804026E47846F208E2FF75F016A424D4
:1019D90017F87401F27845EFF27847E204F2E2C3AE
:0B19E9009403748094804002E4F2221A
:030006000219B923
:1017F600309857C2987846E26401600E7401F20888
:10180600E275F016A42418F8E4F27847E2FF75F0C2
:1018160016A42418F8E2FEEF75F016A424032EF899
:10182600E599F27847E2FF75F016A42418F8E20469
:10183600F2E2C3941374809480400BEF75F016A403
:101846002418F87413F2E47848F2309902C2992207
:0A1D8B00112233445500000000004F
:0E1D3C00854EFFFFFFFFFF8549FFFFFFFFFF02
:0A1B9D00EBF208EAF208E9F2C2A731
:101BA700E4FEEEC39408748094805015EF3392805E
:101BB700EF25E0FFD2A5A2A4E4334FFFC2A50E8014
:011BC700E13C
:011BC80022FA
:0B1C64007F07121D67AB07AD037F2751
:101C6F00C2A7121BA7AC07AF05121BA7D2A7AF04C1
:011C7F002242
:0C1D6700C2A7121BA77FFF121BA7D2A768
:011D7300224D
:021B3B0078B878
:101B3D00121B9DAD07E4FC78BBE2FFECC39F501B6D
:101B4D007FFF121BA778B8E2FB08E2FA08E2F98CD6
:0F1B5D0082758300EF120C4A0C80DCD2A7AF0513
:011B6C002256
:0919F4007BFE78BB7405F27F3024
:0219FD0078B8B8
:1019FF00121B9DAD07E4FC78BBE2FFECC39F501BAD
:101A0F0078B8E2FB0808E2F92401F218E2FA340090
:0F1A1F00F2120C04FF121BA70C80DCD2A7AF053C
:011A2E002295
:0A1A2F0078ADEBF208EAF208E9F2E4
:101A3900121C64EB30E625C2A678ADE2FB08E2FA97
:101A490008E2F978BB7420F27F61121B3B7DFF7FAE
:0E1A5900E2121C6FD2A6121D747F00227F01C4
:011A6700225C
:101BC900C2A678BB7420F27FA01219FDD2A620818B
:101BD900FD121C64EB30E40A7DFF7FE1121C6F7F6C
:0B1BE9001022EB30E5037F20227FFF7D
:011BF40022CE
:10178F0078AD7C007DFE7BFF7A1D798B7E007F0517
:10179F00120BDE78B27C007DFE7BFF7A1D79907E86
:1017AF00007F05120BDEC2A5D2A7C2A67A0079ADC3
:1017BF001219F47BFE7A0079B278BB7405F27F10B0
:1017CF00121B3B78B2E26411701A08E264227014A3
:1017DF0008E26433700E08E26444700808E264554E
:0617EF007002FF227F01E1
:0117F50022D1
:1018B100C2A67D207F31121C6F7DFF7FE2121C6F5B
:1018C1007A00794E1219F47BFE7A00794978BB745B
:1018D10005F27F2A1219FD7D017F21121C6F7F22E3
:1018E100121C6F7D1A7F24121C6FE4FD7F25121CD0
:1018F1006F7D0F7F26121C6F7F20121C6FD2A622D4
:101A9E0078ADEBF208EAF208E9F2C2A67D0E7F20DD
:101AAE00121C6FD2A67F0F7E00121D8078ADE2FB56
:101ABE0008E2FA08E2F9121BC9C2A67D0F7F2012B6
:051ACE001C6FD2A622EE
:091D9500D283D282C282C28322F1
:071DA600D283C282D2822227
:0B1D2C00121B74121D37AF04121B7451
:051D3700D283C28322EB
:071B6D00AC07121D957F7803
:101B7400C283E4FEEEC3940874809480501AAD07C7
:101B8400ED548064807004D2828002C282EF25E02A
:081B9400FFD283C2830E80DC46
:011B9C002226
:0E1D4B00121B6D121D37E4FF121D2C021DA687
:0E1D5900121B6D121D377F40121D2C021DA69D
:101BF500EF24B0FFEE33FEE4FDFC121C10E4FDFC07
:0B1C0500FFFE121C107F10E4FDFCFE2F
:101C1000AB07AA06ED4C6003021D59AF03121D4B22
:011C200022A1
:041942007873EFF2D5
:10194600E4F9E9FF7E00C39408748094805028125D
:101956001BF5E47874F27874E2C394807480948002
:10196600501218E2FF7E007D017C00121C1008E276
:0719760004F280E20980CBBE
:01197D002247
:071B080078B4E2FF08E2FDE2
:101B0F00A907ED24B0FFE433FEE4FDFC121C10E93D
:101B1F0054F0C4540F7E004410FFE4FDFC121C105F
:0C1B2F00E9540FFF7E00E4FDFC021C10D6
:101CB4007F8D121C0CE4FDFC7F14FE121C10E4FD4D
:071CC400FC7FAFFE021C10C3
:101D1B00E4FDFC7F8D121C06E4FDFC7FAEFE021C75
:011D2B0010A7
:101AD300E4F9E9FF7E00C3940874809480502512D2
:101AE3001BF5E478ADF278ADE2C394807480948002
:101AF300500F7D017C00E4FFFE121C10E204F28013
:041B0300E50980CEA2
:011B070022BB
:101A6800E4F9E9FF7E00C39408748094805026123C
:101A78001BF5E47875F27875E2C3948074809480DD
:101A880050107D017C007F017E00121C10E204F2E0
:051A980080E40980CD8F
:011A9D002226
:0712A00078B5EDF218EFF242
:1012A700E478B8F2F9EB24E0F2D3EF947F748094FA
:1012B700804009E478B4F208E22402F278B7E264E5
:1012C70010707A121B08E4F9E9C3940874809480BB
:1012D700502A78B8E275F010A429F582E435F0F5C4
:1012E70083E582244EF582E5833402F583E493FF98
:1012F7007E007D017C00121C100980CC78B4E2FFCF
:1013070008E204FD121B0FE4F9E9C3940874809402
:1013170080506378B8E275F010A429F582E435F0BF
:10132700F583E5822456F582E5833402F583E49359
:10133700FF7E007D017C00121C100980CC121B0867
:10134700E4F9E9C3940674809480502A78B8E2756A
:10135700F006A42426F582E5F03400F583E582291A
:10136700F582E43583F583E493FF7E007D017C00FD
:06137700121C100980CCDD
:01137D00224D
:061C80007876EFF2A905E1
:101C86007F017E00AD0119ED600B7876E2FD7C00E8
:051C9600120C6C80EF50
:011C9B002226
:0D1443007877EFF208EDF208EAF208EBF21C
:10145000E4787FF2787DF2787BE2FF787DE2FEC36C
:101460009F40030214EBC3EF9E14FD7F0A121C8001
:101470007879E2FC08E2FDCFCDCFCECCCE120C7E47
:101480007C007D0A120C7E787EEDF208E2703078E6
:101490007BE214FF787DE2FEC39F502308E2701ABE
:1014A000787CE2FCC3138EF0A4FF7877E22FFF086C
:1014B000E2FD78B7ECF27B208026787F7401F27829
:1014C0007CE2FEC313FF08E2FDEF8DF0A4FF787706
:1014D000E22FFF08E2FD787EE22430FB78B7EEF2DF
:0B14E0001212A0787DE204F202145703
:0114EB0022DE
:1018560078ADEFF208EDF208EBF208EAF208E9F2E9
:10186600E478B3F278AFE2FB08E2FA08E2F978B37B
:10187600E2F582758300120C1DFB602E78ADE2FF47
:1018860008E2FD78B2E278B7F21212A078ADE2244F
:1018960008F2E2D39478748094804007E4F208E278
:0A18A6002402F278B3E204F280BAE3
:0118B0002215
:0B14EC007882EBF27880EFF208EDF25E
:1014F700E47883F2121B0FE4F9E9C3941074809423
:1015070080502E7882E275F040A4243EF582E5F003
:101517003408F583E58229F582E43583F583E4937E
:10152700FF7E007D017C00121C1008E204F2098096
:10153700C87880E2FF08E204FD121B0FE4F9E9C353
:10154700941074809480502E7882E275F040A42421
:101557005EF582E5F03408F583E58229F582E43506
:1015670083F583E493FF7E007D017C00121C100845
:06157700E204F20980C845
:01157D00224B
:08160A0078ADEFF278AFEBF2CE
:10161200E478B4F208F278B0E2FF54077008EF13EE
:101622001313541F800978B0E2131313541F047864
:10163200B7F278B7EDF278B0E2FF78B7E2FDC39F78
:10164200504C78ADE2FF121B0FE278B6F278AFE2AF
:10165200FF78B6E2C39F502F78B1E2FB08E2FA08A6
:10166200E2F90808E2FF2401F218E2FE3400F28FE8
:10167200828E83120C1DFF7E007D017C00121C10E5
:0E16820078B6E204F280C678B7E204F280A8DF
:011690002237
:1011C000E4FDFC7FAEFE121BFFE4FDFC7F40FE123F
:1011D0001C10E4FDFC7FB0FE121C10E4FDFC7F81BE
:1011E000FE121C10E4FDFC7FFFFE121C10E4FDFC4F
:1011F0007FA1FE121C10E4FDFC7FA6FE121C10E471
:10120000FDFC7FA8FE121C10E4FDFC7F3FFE121CBB
:1012100010E4FDFC7FC8FE121C10E4FDFC7FD3FE31
:10122000121C10E4FDFCFFFE121C10E4FDFC7FD537
:10123000FE121C10E4FDFC7F80FE121C10E4FDFC7D
:101240007FD8FE121C10E4FDFC7F05FE121C10E48A
:10125000FDFC7FD9FE121C10E4FDFC7FF1FE121C88
:1012600010E4FDFC7FDAFE121C10E4FDFC7F12FE90
:10127000121C10E4FDFC7FDBFE121C10E4FDFC7F61
:1012800030FE121C10E4FDFC7F8DFE121C10E4FDEC
:10129000FC7F14FE121C10E4FDFC7FAFFE021C104C
:100026000000000000000000002F00000000070094
:10003600070000147F147F1400242A7F2A1200620E
:1000460064081323003649552250000005030000BA
:1000560000001C224100000041221C000014083E42
:1000660008140008083E0808000000A06000000808
:10007600080808080000606000000020100804025C
:10008600003E5149453E0000427F4000004261511A
:100096004946002141454B31001814127F100027B4
:1000A60045454539003C4A49493000017109050377
:1000B60000364949493600064949291E00003636A8
:1000C600000000005636000000081422410000140B
:1000D60014141414000041221408000201510906E8
:1000E60000324959513E007C1211127C007F494969
:1000F6004936003E41414122007F4141221C007F9A
:1001060049494941007F09090901003E4149497AA7
:10011600007F0808087F0000417F41000020404121
:100126003F01007F08142241007F40404040007F8D
:10013600020C027F007F0408107F003E4141413ED1
:10014600007F09090906003E4151215E007F091919
:1001560029460046494949310001017F0101003F16
:100166004040403F001F2040201F003F4038403F96
:1001760000631408146300070870080700615149FA
:10018600454300007F41410000552A552A5500008D
:1001960041417F000004020102040040404040400B
:1001A600000001020400002054545478007F4844A3
:1001B600443800384444442000384444487F0038DA
:1001C6005454541800087E0901020018A4A4A47C03
:1001D600007F080404780000447D400000408084CD
:1001E6007D00007F102844000000417F4000007C15
:1001F60004180478007C0804047800384444443821
:1002060000FC242424180018242418FC007C08046C
:10021600040800485454542000043F444020003C45
:100226004040207C001C2040201C003C4030403CCC
:10023600004428102844001CA0A0A07C004464545C
:100246004C441414141414140000000000000000A0
:100256000000000000000000000000F800000000A0
:10026600000000333000000000100C06100C0600E1
:10027600000000000000000040C07840C078400048
:10028600043F04043F040400007088FC08300000AA
:10029600001820FF211E0000F008F000E018000002
:1002A60000211C031E211E0000F0088870000000BB
:1002B6001E2123241927211010160E00000000000D
:1002C6000000000000000000000000E0180402002A
:1002D600000000071820400000020418E00000009B
:1002E6000040201807000000404080F08040400099
:1002F6000202010F01020200000000F000000000EF
:100306000101011F010101000000000000000000C2
:1003160080B0700000000000000000000000000037
:1003260000010101010101010000000000000000C0
:10033600003030000000000000000000806018045B
:10034600006018060100000000E010080810E00038
:10035600000F102020100F00001010F80000000001
:100366000020203F20200000007008080888700048
:1003760000302824222130000030088888483000C8
:100386000018202020110E000000C02010F80000E8
:1003960000070424243F240000F808888808080081
:1003A6000019212020110E0000E010888818000096
:1003B600000F112020110E0000380808C838080068
:1003C6000000003F000000000070880808887000E8
:1003D600001C222121221C0000E010080810E00069
:1003E6000000312222110F00000000C0C0000000F2
:1003F6000000003030000000000000800000000017
:10040600000080600000000000008040201008000E
:1004160000010204081020004040404040404000D7
:1004260004040404040404000008102040800000B2
:100436000020100804020100007048080808F000B7
:100446000000003036010000C030C828E810E00087
:100456000718272423140B000000C038E000000012
:10046600203C23020227382008F88888887000007C
:10047600203F202020110E00C03008080808380050
:10048600071820202010080008F808080810E000C7
:10049600203F202020100F0008F88888E808100068
:1004A600203F20202320180008F88888E80810003C
:1004B600203F200003000000C03008080838000074
:1004C60007182020221E020008F808000008F80875
:1004D600203F210101213F20000808F808080000FC
:1004E6000020203F2020000000000808F80808002F
:1004F600C08080807F00000008F888C028180800A7
:10050600203F20012638200008F8080000000000DF
:10051600203F20202020300008F8F800F8F80800D6
:10052600203F003F003F200008F830C00008F808D0
:10053600203F200007183F00E01008080810E000E0
:100546000F10202020100F0008F808080808F000F7
:10055600203F210101010000E01008080810E0001A
:100566000F18242438504F0008F8888888887000AF
:10057600203F2000030C302000708808080838004F
:100586000038202121221C00180808F80808180045
:100596000000203F2000000008F808000008F808C6
:1005A600001F202020201F000878880000C8380877
:1005B600000007380E010000F80800F80008F800EF
:1005C600033C0700073C0300081868808068180889
:1005D60020302C03032C30200838C800C838080007
:1005E6000000203F2000000010080808C838080056
:1005F6002038262120201800000000FE02020200FA
:100606000000007F40404000000C30C000000000A9
:10061600000000010638C00000020202FE000000D1
:10062600004040407F000000000004020202040077
:1006360000000000000000000000000000000000B4
:10064600808080808080808000020204000000009C
:100656000000000000000000000080808080000094
:100666000019242222223F2008F800808000000082
:10067600003F112020110E00000000808080000045
:10068600000E112020201100000000808088F80054
:10069600000E112020103F20000080808080000086
:1006A600001F222222221300008080F088888818EA
:1006B6000020203F202000000000808080808000F5
:1006C600006B94949493600008F80080808000008A
:1006D600203F210000203F20008098980000000065
:1006E6000020203F20200000000000809898000095
:1006F60000C08080807F000008F8000080808000B5
:10070600203F24022D302000000808F800000000D9
:100716000020203F20200000808080808080800094
:10072600203F20003F20003F808000808080000026
:10073600203F210000203F200000808080800000B4
:10074600001F202020201F008080008080000000E5
:1007560080FFA12020110E00000000808080800014
:10076600000E112020A0FF80808080008080800005
:1007760020203F2120000100000080808080800032
:100786000033242424241900008080E080800000A7
:100796000000001F202000008080000000808000F4
:1007A600001F202020103F20808080000080808055
:1007B60000010E30080601008080008000808080E5
:1007C6000F300C030C300F0000808000808080000A
:1007D6000020312E0E312000808080000080808035
:1007E60080818E70180601000080808080808000E5
:1007F6000021302C2221300000000000807C020203
:1008060000000000003F404000000000FF00000024
:1008160000000000FF0000000002027C80000000D3
:100826000040403F000000000006010102020404EF
:1008360000000000000000000000F010101010FF83
:1008460010101010F0000000000000000000000072
:10085600000000000000000000000F04040404FF74
:10086600040404040F000000000000000000000063
:1008760000000000000000004040405F55555575DF
:100886005555555F40404000000000000000000044
:1008960000000000000000000040200F094989798F
:1008A6000909090F204000000000000000000000B8
:1008B600000000000000000000FE02424ACA4A4A48
:1008C600CA4A4A4202FE0000000000000000000082
:1008D600000000000000000000FF40504C43404074
:1008E6004F50505C40FF0000000000000000000078
:1008F60000000000000000000000F888888888FFDB
:1009060088888888F80000000000000000000000C9
:10091600000000000000000000001F080808087F13
:10092600888888889F80F000000000000000000092
:10093600000000000000000080828282828282E243
:10094600A2928A86828080000000000000000000DB
:100956000000000000000000000000000040807F52
:100966000000000000000000000000000000000081
:1009760000000000000000002424A4FEA3220022A0
:10098600CC0000FF00000000000000000000000096
:100996000000000000000000080601FF000104043A
:1009A600040404FF02020200000000000000000030
:1009B6000000000000000000101010FF10900888D2
:1009C6008888FF8888880800000000000000000072
:1009D60000000000000000000444827F0180804087
:1009E600432C102846818000000000000000000013
:1009F60000000000000000000000264949493200BE
:100A0600007F020408107F000000060606FEFE06B0
:100A1600060600000000000080C0E0F0F8FCFCFCC8
:100A2600FCFCF8F0E0C0C0E0F0F8FCFCFCFCF8F0E0
:100A3600E0C0000000000000F8F8F8000000000028
:100A460000000000F8F8F8000000000000FFFF00BA
:100A560000000000000078FEFFFFFFFFFFFFFFFF22
:100A6600FFFFFFFFFFFFFFFFFFFFFFFFFFFFFFFF90
:100A7600FFFFFFFEF8000000FFFFFF000000000080
:100A860000000000FFFFFF000000000000FFFF0065
:100A96000000000000000001070F1F3F7FFFFFFF5F
:100AA600FFFFFFFFFFFFFFFFFFFFFFFFFFFF7F3F90
:100AB6001F1F070300000000FFFFFF0000000000EB
:100AC60000000000FFFFFF0000006060607F7F60A5
:100AD600606000000000000000000000000000014F
:100AE60003070F1F1F3F7F3F1F0F07030100000073
:100AF60000000000000000001F3F3F38303030305B
:080B0600303030383F3F1F0082
:101C2100EF14600E14600F14601024037013A2905F
:101C3100800AA2918006A2928002A293E433FE80E0
:051C410002E4FEAF0605
:011C4600227B
:10137E00E4FDEDC39404748094804003021442EDA6
:10138E0075F00AA4248DF8C000E225E0D000F2AF7B
:10139E0005121C21EF6401700BED75F00AA4248D6B
:1013AE00F8E204F2ED75F00AA4248DF8E2FF7E0057
:1013BE0064F0701BED75F00AA42489F8E4F20804B9
:1013CE00F2ED75F00AA4248BF8E4F208F2801FEF18
:1013DE00640F4E7019ED75F00AA42489F8E4F20832
:1013EE00F2ED75F00AA4248BF8E4F20804F2ED7520
:1013FE00F00AA4248AF9E3700219E36012ED75F085
:10140E000AA42487F808E22401F218E23400F2ED6F
:10141E0075F00AA4248CF9E3700219E36012ED75DD
:10142E00F00AA42485F808E22401F218E23400F24E
:04143E000D02138008
:011442002287
:10169100E4FFEFC39404748094805075EF75F00AF1
:1016A100A42486F9C3E3940519E394004060EF751F
:1016B100F00AA42487F8E2FC08E2FDD3940AEC9432
:1016C100004033D3ED942CEC9401500DEF75F00AEA
:1016D100A42484F87401F2801DEF75F00AA4248813
:1016E100F9C3E3942C19E39401400BEF75F00AA4BC
:1016F1002484F87402F2EF75F00AA42487F8E4F266
:1017010008F2EF75F00AA42485F8E4F208F20F80DC
:011711008156
:0117120022B4
:0300000002157E68
:0C157E00787FE4F6D8FD7581070215C5E2
:100B0E00E709F608DFFA8046E709F208DFFA803EC9
:100B1E0088828C83E709F0A3DFFA8032E309F608B6
:100B2E00DFFA8078E309F208DFFA807088828C831E
:100B3E00E309F0A3DFFA806489828A83E0A3F608D2
:100B4E00DFFA805889828A83E0A3F208DFFA804CAC
:100B5E0080D280FA80C680D4806980F28033801083
:100B6E0080A680EA809A80A880DA80E280CA8033EC
:100B7E0089828A83ECFAE493A3C8C582C8CCC58364
:100B8E00CCF0A3C8C582C8CCC583CCDFE9DEE78034
:100B9E000D89828A83E493A3F608DFF9ECFAA9F0B3
:100BAE00EDFB2289828A83ECFAE0A3C8C582C8CC09
:100BBE00C583CCF0A3C8C582C8CCC583CCDFEADE22
:100BCE00E880DB89828A83E493A3F208DFF980CC84
:100BDE0088F0EF60010E4E60C388F0ED2402B4047D
:100BEE000050B9F582EB2402B4040050AF23234524
:060BFE008223900B5E73E0
:100C0400BB010689828A83E0225002E722BBFE02EE
:090C1400E32289828A83E4932221
:100C1D00BB010CE58229F582E5833AF583E022508C
:100C2D0006E92582F8E622BBFE06E92582F8E222D6
:0D0C3D00E58229F582E5833AF583E49322F0
:100C4A00F8BB010DE58229F582E5833AF583E8F0E0
:100C5A00225006E92582C8F622BBFE05E92582C88C
:020C6A00F22274
:100C6C00EF8DF0A4A8F0CF8CF0A428CE8DF0A42E9C
:020C7C00FE2256
:100C7E00BC000BBE0029EF8DF084FFADF022E4CC5A
:100C8E00F875F008EF2FFFEE33FEEC33FCEE9DEC23
:100C9E00984005FCEE9DFE0FD5F0E9E4CEFD22ED69
:100CAE00F8F5F0EE8420D21CFEADF075F008EF2FB3
:100CBE00FFED33FD4007985006D5F0F222C398FDA4
:050CCE000FD5F0EA2241
:100CD300E3F5F009E208B5F06D606B80F3E3F5F03E
:100CE30009E608B5F060605E80F387F009E608B5B1
:100CF300F054605280F487F009E208B5F04860468A
:100D030080F488828C8387F009E0A3B5F0386036DD
:100D130080F488828C8387F009E493A3B5F027607D
:100D23002580F388828C83E3F5F009E0A3B5F01600
:100D3300601480F388828C83E3F5F009E493A3B510
:100D4300F004600280F2020DFE808580E7808E80D1
:100D5300D2803C8015806C807E809B80B5808B80A8
:100D6300A1804F8070803A020E0A89828A83ECFA4E
:100D7300E493F5F0A3C8C582C8CCC583CCE493A3A0
:100D8300C8C582C8CCC583CCB5F070606E80E189DC
:100D9300828A83E493F5F0A3E208B5F05E605C8099
:100DA300F289828A83E0F5F0A3E608B5F04D604B43
:100DB30080F389828A83E0F5F0A3E208B5F03C6012
:100DC3003A80F389828A83E493F5F0A3E608B5F0C9
:100DD3002A602880F2805389828A83ECFAE493F5AF
:100DE300F0A3C8C582C8CCC583CCE0A3C8C582C85C
:100DF300CCC583CCB5F004600280E27FFFB5F0027E
:100E03000F2240027F012289828A83ECFAE0F5F007
:100E1300A3C8C582C8CCC583CCE0A3C8C582C8CC4F
:100E2300C583CCB5F0D560D380E389828A83ECFA9D
:100E3300E0F5F0A3C8C582C8CCC583CCE493A3C8AE
:100E4300C582C8CCC583CCB5F0B160AF80E288F071
:100E5300ED2402B4040050A3F582EB2402B4040091
:0B0E630050992323458223900D4C730F
:100E6E00E709F60870FA8046E709F20870FA803E44
:100E7E0088828C83E709F0A370FA807EE309F60876
:100E8E0070FA8076E309F20870FA806E88828C839D
:100E9E00E309F0A370FA806289828A83E0A3F608E0
:100EAE0070FA805689828A83E0A3F20870FA804A2B
:100EBE0080D280FA80C680D4806580F28031801026
:100ECE0080A680EA809A80A880DA80E280CA80318B
:100EDE0089828A83ECFAE493A3C8C582C8CCC58301
:100EEE00CCF0A3C8C582C8CCC583CC70E9800D896F
:100EFE00828A83E493A3F60870F9ECFAA9F0EDFB6D
:100F0E002289828A83ECFAE0A3C8C582C8CCC58345
:100F1E00CCF0A3C8C582C8CCC583CC70EA80DD896D
:100F2E00828A83E493A3F20870F980CE88F0ED24D0
:100F3E0002B4040050C4F582EB2402B4040050BA8B
:090F4E002323458223900EBE739B
:101CE000E4FFFE120C04600C0FEF70010E09E970A6
:051CF000F20A80EF2262
:10158A00020F57E493A3F8E493A34003F68001F211
:10159A0008DFF48029E493A3F85407240CC8C33362
:1015AA00C4540F4420C8834004F456800146F6DF31
:1015BA00E4800B0102040810204080901D3CE47E68
:1015CA00019360BCA3FF543F30E509541FFEE49326
:1015DA00A360010ECF54C025E060A840B8E493A3ED
:1015EA00FAE493A3F8E493A3C8C582C8CAC583CA18
:1015FA00F0A3C8C582C8CAC583CADFE9DEE780BED0
:011D4A000098
:00000001FF
